:1000000002308A00882A0000C5295010D2224122DD
:100010005910A01F0000412AAB21572541283D114E
:1000200000004522CE2FC3377238000145326E19C9
:10003000B018B619B3190001C3274E27C521D42221
:100040004410D724C6240001C62049262E172E2985
:10005000C5214F27CE22432A0001412AAB21492343
:1000600053290A0020340034CF252F3700003130C7
:1000700084008313000803194A280630F800F701AA
:10008000F70B4028F80B3F287B30F700F70B46288A
:10009000800B3D28080038184F28061250280616F5
:1000A000831606128312B818572886125828861607
:1000B00083168612831238195F28061360280617E4
:1000C000831606138312B8196728861368288617C3
:1000D000831686130000831206148316061002305E
:1000E000F700F70B7128742800008312061083169E
:1000F000061083120800B901831606160030831219
:10010000061A0130B9048316861600308312861A47
:100110000130F7000310F70D7708B90483160617AE
:1001200000308312061B0130F700F70DF70DFC308D
:10013000F7057708B9048316861700308312861BEB
:100140000130F700F70DF70DF70DF830F7057708D8
:10015000B9043908F8000800831606108610061145
:1001600083128610831686100616861606178617C3
:1001700083120615831606110000831206148316D7
:100180000610000083127B207808B8000610831642
:10019000061000008312061483160610CF28D028FC
:1001A000000083127B207808B70006108316061023
:1001B00006128612061386138312380EF700F030EB
:1001C000F70577083704F8007808B700B71FEA2862
:1001D0008316B428B508031DEF288610F02886146E
:1001E0008316861000008312061183160611000084
:1001F00083120610831606108312360EB7000F30D6
:10020000B7053708B8004B2036080F39B700B800DB
:100210004B2008002830AA000C30AB000130AC00A5
:100220000630AD0006108316061083128610831662
:100230008610831206118316061106128612061303
:1002400086130610861006110F308312B100372076
:100250000130A9002908033C031C36290330B800EB
:100260004B200530B1003720A90A2A290230B800F6
:100270004B200530B1003720A9012908033C031C9D
:100280004D292A302907840083130008AE00B501E8
:100290002E08B600AC20A90A3D298A110A129F2A0D
:1002A000320B532956294030B3005729B30101308E
:1002B0003102B30733088038B400B5013408B60002
:1002C000AC2008003008073A031970290B3A0319CB
:1002D0007529063A03197D29023A031983298829C9
:1002E0000130B100B20050218D29B5010130B600B6
:1002F000AC200230B10037208D290130B10002302E
:10030000B20050218D29B5011030B600AC208D29E6
:100310000130B5003008B600AC2008000B08AD0075
:100320008B13831603178C170C1400000000831224
:100330000313AD1B8B1703170C087F390319E22930
:100340000313AD0003170D080313AE0003170F08C6
:100350000313AF002D08B00062212E0803178D0093
:1003600003132F0803178F0003130B08B0008B1320
:10037000831603178C170C1400000000831203135C
:10038000B01B8B1703170C0D0E0D7F390319E229D3
:100390000313AD0003170D080313AE0003170F0876
:1003A0000313AF002D08B00062212E0803178D0043
:1003B00003132F0803178F008D0A03198F0A0313E5
:1003C0008E29031703130800AA0141300C1EE629E9
:1003D000990054300C1EEA2999000A300C1EEE29AF
:1003E0009900AB012B08093C031C2D2A2908840025
:1003F00083132A1883178403840A8C1EFD291A0884
:1004000080000D300002031DFC298001AC012C0886
:10041000133C031C282A29302B078400831300086F
:100420004F3C031D262A01302B07293E84008313ED
:1004300000084B3C031D262A343003178D00003082
:100440008F0003138E210130AA00282AAC0A072A44
:100450002A0B2B2A2D2AAB0AF2298A110A12A72A63
:100460000B08A9008B13831603178C170C140000BC
:10047000000083120313A91B8B1703170C087F3985
:100480000319862A0313A90003170D080313AA00F2
:1004900003170F080313AB0029080C1E4D2A9900FF
:1004A0002A0803178D0003132B0803178F0003136B
:1004B0000B08AC008B13831603178C170C14000069
:1004C000000083120313AC1B8B1703170C0D0E0DCA
:1004D0007F390319862A0313A90003170D08031394
:1004E000AA0003170F080313AB0029080C1E762A75
:1004F00099002A0803178D0003132B0803178F0098
:100500008D0A03198F0A0313302A031703130800F7
:1005100003081F398300813083169900A6309800A4
:1005200090308312980083161F149F141F159F117B
:1005300007309C0083138312A001A1010A29043013
:1005400003178D0000308F0003138E21E4290B3038
:1005500003178D0000308F00031330221130031772
:100560008D0000308F000313302222300C1EB62A7B
:1005700099002C300C1EBA2A990022300C1EBE2A7B
:100580009900163003178D0000308F0003133022BE
:1005900022300C1EC92A99000D300C1ECD2A99005C
:1005A0000A300C1ED12A9900A3012208840083136B
:1005B000231883178403840A8C1EDC2A1A088000FF
:1005C0000D300002031DDB2A8001A40124083B3CFE
:1005D000031C172B0130A50022302407840083134D
:1005E00000084F3C031D072B01302407223E8400E6
:1005F000831300084B3C031D072B0130A3001C3064
:1006000003178D0000308F0003138E21172B250850
:10061000A50AA50025083B3C031D152B2430031714
:100620008D0000308F0003138E21A40AE62AA30850
:100630000319D52A2D3003178D0000308F000313C6
:100640003022260884008313271883178403840A22
:100650008C1E282B1A0880000D300002031D272B4A
:1006600080010930A80028081D3C031C5F2B27309F
:100670002807F800FA010318FA0A26302807840030
:1006800083130008AB007808840083137A1883175B
:100690002B08800026302807840083130008A90057
:1006A0000030FA0032302902031D5D2BFA08031DC9
:1006B0005D2B2708B00062215F2BA80A332B5F2B2C
:0206C0006300D5
:02400E00723FFF
:00000001FF
;PIC16F877A
;CRC=6099  CREATED="15-Sep-16 15:22"
